{
  "_format": "hh3-artifact-1",
  "contractName": "DocumentRegistry",
  "sourceName": "contracts/DocumentRegistry.sol",
  "abi": [
    {
      "anonymous": false,
      "inputs": [
        {
          "indexed": true,
          "internalType": "uint256",
          "name": "documentId",
          "type": "uint256"
        },
        {
          "indexed": false,
          "internalType": "string",
          "name": "hashDocument",
          "type": "string"
        },
        {
          "indexed": false,
          "internalType": "string",
          "name": "signataire",
          "type": "string"
        },
        {
          "indexed": false,
          "internalType": "uint256",
          "name": "timestamp",
          "type": "uint256"
        }
      ],
      "name": "ProofRegistered",
      "type": "event"
    },
    {
      "inputs": [
        {
          "internalType": "uint256",
          "name": "documentId",
          "type": "uint256"
        }
      ],
      "name": "getProof",
      "outputs": [
        {
          "components": [
            {
              "internalType": "uint256",
              "name": "documentId",
              "type": "uint256"
            },
            {
              "internalType": "string",
              "name": "hashDocument",
              "type": "string"
            },
            {
              "internalType": "string",
              "name": "signatureNumerique",
              "type": "string"
            },
            {
              "internalType": "string",
              "name": "clePublique",
              "type": "string"
            },
            {
              "internalType": "string",
              "name": "signataire",
              "type": "string"
            },
            {
              "internalType": "uint256",
              "name": "timestamp",
              "type": "uint256"
            },
            {
              "internalType": "bool",
              "name": "exists",
              "type": "bool"
            }
          ],
          "internalType": "struct DocumentRegistry.Proof",
          "name": "",
          "type": "tuple"
        }
      ],
      "stateMutability": "view",
      "type": "function"
    },
    {
      "inputs": [
        {
          "internalType": "uint256",
          "name": "documentId",
          "type": "uint256"
        }
      ],
      "name": "proofExists",
      "outputs": [
        {
          "internalType": "bool",
          "name": "",
          "type": "bool"
        }
      ],
      "stateMutability": "view",
      "type": "function"
    },
    {
      "inputs": [
        {
          "internalType": "uint256",
          "name": "documentId",
          "type": "uint256"
        },
        {
          "internalType": "string",
          "name": "hashDocument",
          "type": "string"
        },
        {
          "internalType": "string",
          "name": "signatureNumerique",
          "type": "string"
        },
        {
          "internalType": "string",
          "name": "clePublique",
          "type": "string"
        },
        {
          "internalType": "string",
          "name": "signataire",
          "type": "string"
        }
      ],
      "name": "registerProof",
      "outputs": [],
      "stateMutability": "nonpayable",
      "type": "function"
    }
  ],
  "bytecode": "0x6080604052348015600e575f5ffd5b506109f88061001c5f395ff3fe608060405234801561000f575f5ffd5b506004361061003f575f3560e01c806311149ada14610043578063716564de1461006c578063eb44baed146100a1575b5f5ffd5b610056610051366004610606565b6100b6565b604051610063919061064b565b60405180910390f35b61009161007a366004610606565b5f9081526020819052604090206006015460ff1690565b6040519015158152602001610063565b6100b46100af36600461078c565b6103e4565b005b6100f56040518060e001604052805f8152602001606081526020016060815260200160608152602001606081526020015f81526020015f151581525090565b5f8281526020819052604090206006015460ff166101645760405162461bcd60e51b815260206004820152602160248201527f446f63756d656e7452656769737472793a2070726f6f66206e6f7420666f756e6044820152601960fa1b60648201526084015b60405180910390fd5b5f8281526020818152604091829020825160e081019093528054835260018101805491928401916101949061084e565b80601f01602080910402602001604051908101604052809291908181526020018280546101c09061084e565b801561020b5780601f106101e25761010080835404028352916020019161020b565b820191905f5260205f20905b8154815290600101906020018083116101ee57829003601f168201915b505050505081526020016002820180546102249061084e565b80601f01602080910402602001604051908101604052809291908181526020018280546102509061084e565b801561029b5780601f106102725761010080835404028352916020019161029b565b820191905f5260205f20905b81548152906001019060200180831161027e57829003601f168201915b505050505081526020016003820180546102b49061084e565b80601f01602080910402602001604051908101604052809291908181526020018280546102e09061084e565b801561032b5780601f106103025761010080835404028352916020019161032b565b820191905f5260205f20905b81548152906001019060200180831161030e57829003601f168201915b505050505081526020016004820180546103449061084e565b80601f01602080910402602001604051908101604052809291908181526020018280546103709061084e565b80156103bb5780601f10610392576101008083540402835291602001916103bb565b820191905f5260205f20905b81548152906001019060200180831161039e57829003601f168201915b50505091835250506005820154602082015260069091015460ff16151560409091015292915050565b5f85116104415760405162461bcd60e51b815260206004820152602560248201527f446f63756d656e7452656769737472793a20696e76616c696420646f63756d656044820152641b9d081a5960da1b606482015260840161015b565b5f8451116104915760405162461bcd60e51b815260206004820152601c60248201527f446f63756d656e7452656769737472793a20656d707479206861736800000000604482015260640161015b565b5f8581526020819052604090206006015460ff16156105015760405162461bcd60e51b815260206004820152602660248201527f446f63756d656e7452656769737472793a2070726f6f6620616c72656164792060448201526565786973747360d01b606482015260840161015b565b6040805160e081018252868152602080820187815282840187905260608301869052608083018590524260a0840152600160c084018190525f8a81529283905293909120825181559051919290919082019061055d90826108d2565b506040820151600282019061057290826108d2565b506060820151600382019061058790826108d2565b506080820151600482019061059c90826108d2565b5060a0820151600582015560c0909101516006909101805460ff191691151591909117905560405185907fee85aa8707183c3cd24114bcbbd2b08d5459393ad4776de3ae0bab4b416f06d1906105f79087908590429061098d565b60405180910390a25050505050565b5f60208284031215610616575f5ffd5b5035919050565b5f81518084528060208401602086015e5f602082860101526020601f19601f83011685010191505092915050565b60208152815160208201525f602083015160e0604084015261067161010084018261061d565b90506040840151601f1984830301606085015261068e828261061d565b9150506060840151601f198483030160808501526106ac828261061d565b9150506080840151601f198483030160a08501526106ca828261061d565b91505060a084015160c084015260c0840151151560e08401528091505092915050565b634e487b7160e01b5f52604160045260245ffd5b5f82601f830112610710575f5ffd5b813567ffffffffffffffff81111561072a5761072a6106ed565b604051601f8201601f19908116603f0116810167ffffffffffffffff81118282101715610759576107596106ed565b604052818152838201602001851015610770575f5ffd5b816020850160208301375f918101602001919091529392505050565b5f5f5f5f5f60a086880312156107a0575f5ffd5b85359450602086013567ffffffffffffffff8111156107bd575f5ffd5b6107c988828901610701565b945050604086013567ffffffffffffffff8111156107e5575f5ffd5b6107f188828901610701565b935050606086013567ffffffffffffffff81111561080d575f5ffd5b61081988828901610701565b925050608086013567ffffffffffffffff811115610835575f5ffd5b61084188828901610701565b9150509295509295909350565b600181811c9082168061086257607f821691505b60208210810361088057634e487b7160e01b5f52602260045260245ffd5b50919050565b601f8211156108cd57805f5260205f20601f840160051c810160208510156108ab5750805b601f840160051c820191505b818110156108ca575f81556001016108b7565b50505b505050565b815167ffffffffffffffff8111156108ec576108ec6106ed565b610900816108fa845461084e565b84610886565b6020601f821160018114610932575f831561091b5750848201515b5f19600385901b1c1916600184901b1784556108ca565b5f84815260208120601f198516915b828110156109615787850151825560209485019460019092019101610941565b508482101561097e57868401515f19600387901b60f8161c191681555b50505050600190811b01905550565b606081525f61099f606083018661061d565b82810360208401526109b1818661061d565b91505082604083015294935050505056fea2646970667358221220e99069df3130439c3dc602fa2524f89dce2498e9801a14e83a3056e9012e6fc964736f6c634300081c0033",
  "linkReferences": {},
  "deployedLinkReferences": {},
  "immutableReferences": {},
  "inputSourceName": "project/contracts/DocumentRegistry.sol",
  "buildInfoId": "solc-0_8_28-920b1b201f278e08d930e587a05b36f2373b5f1c"
}